{"contracts/USElection.sol":{"USElection":{"abi":[{"anonymous":false,"inputs":[{"indexed":false,"internalType":"uint256","name":"winner","type":"uint256"}],"name":"LogElectionEnded","type":"event"},{"anonymous":false,"inputs":[{"indexed":false,"internalType":"uint8","name":"winner","type":"uint8"},{"indexed":false,"internalType":"uint8","name":"stateSeats","type":"uint8"},{"indexed":false,"internalType":"string","name":"state","type":"string"}],"name":"LogStateResult","type":"event"},{"inputs":[],"name":"BIDEN","outputs":[{"internalType":"uint8","name":"","type":"uint8"}],"stateMutability":"view","type":"function"},{"inputs":[],"name":"TRUMP","outputs":[{"internalType":"uint8","name":"","type":"uint8"}],"stateMutability":"view","type":"function"},{"inputs":[],"name":"currentLeader","outputs":[{"internalType":"uint8","name":"","type":"uint8"}],"stateMutability":"view","type":"function"},{"inputs":[],"name":"electionEnded","outputs":[{"internalType":"bool","name":"","type":"bool"}],"stateMutability":"view","type":"function"},{"inputs":[],"name":"endElection","outputs":[],"stateMutability":"nonpayable","type":"function"},{"inputs":[],"name":"owner","outputs":[{"internalType":"address","name":"","type":"address"}],"stateMutability":"view","type":"function"},{"inputs":[{"internalType":"string","name":"","type":"string"}],"name":"resultsSubmitted","outputs":[{"internalType":"bool","name":"","type":"bool"}],"stateMutability":"view","type":"function"},{"inputs":[{"internalType":"uint8","name":"","type":"uint8"}],"name":"seats","outputs":[{"internalType":"uint8","name":"","type":"uint8"}],"stateMutability":"view","type":"function"},{"inputs":[{"components":[{"internalType":"string","name":"name","type":"string"},{"internalType":"uint256","name":"votesBiden","type":"uint256"},{"internalType":"uint256","name":"votesTrump","type":"uint256"},{"internalType":"uint8","name":"stateSeats","type":"uint8"}],"internalType":"struct USElection.StateResult","name":"result","type":"tuple"}],"name":"submitStateResult","outputs":[],"stateMutability":"nonpayable","type":"function"}],"evm":{"bytecode":{"linkReferences":{},"object":"608060405234801561001057600080fd5b50600080546001600160a01b0319163317905561086f806100326000396000f3fe608060405234801561001057600080fd5b50600436106100935760003560e01c8063713d87c511610066578063713d87c5146100e85780638da5cb5b146100fb578063ac4bd53a14610110578063c94ca9e314610118578063e494a8831461012057610093565b80632d78d8e51461009857806337ad98ec146100b657806359f78468146100d657806369b36bd4146100e0575b600080fd5b6100a0610133565b6040516100ad9190610755565b60405180910390f35b6100c96100c436600461050b565b610138565b6040516100ad9190610630565b6100de610158565b005b6100a0610208565b6100a06100f63660046105eb565b61020d565b610103610222565b6040516100ad919061061c565b6100a0610231565b6100c9610300565b6100de61012e3660046105ac565b610310565b600281565b805160208183018101805160028252928201919093012091525460ff1681565b600054600160a01b900460ff161561018b5760405162461bcd60e51b815260040161018290610683565b60405180910390fd5b6000546001600160a01b031633146101b55760405162461bcd60e51b81526004016101829061071e565b6000805460ff60a01b1916600160a01b1790557faacb23683ec1a0e9b52f9a6264edf58ad322ac62079d65ea7363a2d400f439f46101f1610231565b6040516101fe9190610755565b60405180910390a1565b600181565b60016020526000908152604090205460ff1681565b6000546001600160a01b031681565b600160208190527fd9d16d34ffb15ba3a3d852f0d403e2ce1d691fb54de27ac87cd2f993f3ec330f5460009182527fcc69885fda6bcc1a4ace058b4a62bf5e179ea78fd58a1ccd71c22cc9b688792f5460ff91821691161115610296575060016102fd565b60016020527fcc69885fda6bcc1a4ace058b4a62bf5e179ea78fd58a1ccd71c22cc9b688792f5460026000527fd9d16d34ffb15ba3a3d852f0d403e2ce1d691fb54de27ac87cd2f993f3ec330f5460ff918216911611156102f9575060026102fd565b5060005b90565b600054600160a01b900460ff1681565b600054600160a01b900460ff161561033a5760405162461bcd60e51b815260040161018290610683565b6000546001600160a01b031633146103645760405162461bcd60e51b81526004016101829061071e565b600061037660808301606084016105eb565b60ff16116103965760405162461bcd60e51b8152600401610182906106e9565b8060400135816020013514156103be5760405162461bcd60e51b8152600401610182906106ba565b60026103ca82806107a6565b6040516103d892919061060c565b9081526040519081900360200190205460ff16156104085760405162461bcd60e51b81526004016101829061063b565b600081604001358260200135111561042257506001610426565b5060025b61043660808301606084016105eb565b60ff808316600090815260016020526040812080549092610459918591166107f2565b92506101000a81548160ff021916908360ff1602179055506001600283806000019061048591906107a6565b60405161049392919061060c565b908152604051908190036020019020805491151560ff199092169190911790557fa2e71fe38f1afa3762cf9d2ea7bb6a4d272a90fd6f9392f3acedd3b542046b46816104e560808501606086016105eb565b6104ef85806107a6565b6040516104ff9493929190610763565b60405180910390a15050565b6000602080838503121561051d578182fd5b823567ffffffffffffffff80821115610534578384fd5b818501915085601f830112610547578384fd5b81358181111561055957610559610823565b604051601f8201601f191681018501838111828210171561057c5761057c610823565b6040528181528382018501881015610592578586fd5b818585018683013790810190930193909352509392505050565b6000602082840312156105bd578081fd5b813567ffffffffffffffff8111156105d3578182fd5b8201608081850312156105e4578182fd5b9392505050565b6000602082840312156105fc578081fd5b813560ff811681146105e4578182fd5b6000828483379101908152919050565b6001600160a01b0391909116815260200190565b901515815260200190565b60208082526028908201527f5468697320737461746520726573756c742077617320616c7265616479207375604082015267626d69747465642160c01b606082015260800190565b6020808252601e908201527f54686520656c656374696f6e2068617320656e64656420616c72656164790000604082015260600190565b60208082526015908201527454686572652063616e6e6f7420626520612074696560581b604082015260600190565b6020808252818101527f537461746573206d7573742068617665206174206c6561737420312073656174604082015260600190565b60208082526018908201527f4e6f7420696e766f6b656420627920746865206f776e65720000000000000000604082015260600190565b60ff91909116815260200190565b600060ff8616825260ff851660208301526060604083015282606083015282846080840137818301608090810191909152601f909201601f191601019392505050565b6000808335601e198436030181126107bc578283fd5b83018035915067ffffffffffffffff8211156107d6578283fd5b6020019150368190038213156107eb57600080fd5b9250929050565b600060ff821660ff84168060ff0382111561081b57634e487b7160e01b83526011600452602483fd5b019392505050565b634e487b7160e01b600052604160045260246000fdfea2646970667358221220f0dbad09808cabccc8b43fb5ad578381249d17a01f1847e8eb57572d976dbcf564736f6c63430008000033","opcodes":"PUSH1 0x80 PUSH1 0x40 MSTORE CALLVALUE DUP1 ISZERO PUSH2 0x10 JUMPI PUSH1 0x0 DUP1 REVERT JUMPDEST POP PUSH1 0x0 DUP1 SLOAD PUSH1 0x1 PUSH1 0x1 PUSH1 0xA0 SHL SUB NOT AND CALLER OR SWAP1 SSTORE PUSH2 0x86F DUP1 PUSH2 0x32 PUSH1 0x0 CODECOPY PUSH1 0x0 RETURN INVALID PUSH1 0x80 PUSH1 0x40 MSTORE CALLVALUE DUP1 ISZERO PUSH2 0x10 JUMPI PUSH1 0x0 DUP1 REVERT JUMPDEST POP PUSH1 0x4 CALLDATASIZE LT PUSH2 0x93 JUMPI PUSH1 0x0 CALLDATALOAD PUSH1 0xE0 SHR DUP1 PUSH4 0x713D87C5 GT PUSH2 0x66 JUMPI DUP1 PUSH4 0x713D87C5 EQ PUSH2 0xE8 JUMPI DUP1 PUSH4 0x8DA5CB5B EQ PUSH2 0xFB JUMPI DUP1 PUSH4 0xAC4BD53A EQ PUSH2 0x110 JUMPI DUP1 PUSH4 0xC94CA9E3 EQ PUSH2 0x118 JUMPI DUP1 PUSH4 0xE494A883 EQ PUSH2 0x120 JUMPI PUSH2 0x93 JUMP JUMPDEST DUP1 PUSH4 0x2D78D8E5 EQ PUSH2 0x98 JUMPI DUP1 PUSH4 0x37AD98EC EQ PUSH2 0xB6 JUMPI DUP1 PUSH4 0x59F78468 EQ PUSH2 0xD6 JUMPI DUP1 PUSH4 0x69B36BD4 EQ PUSH2 0xE0 JUMPI JUMPDEST PUSH1 0x0 DUP1 REVERT JUMPDEST PUSH2 0xA0 PUSH2 0x133 JUMP JUMPDEST PUSH1 0x40 MLOAD PUSH2 0xAD SWAP2 SWAP1 PUSH2 0x755 JUMP JUMPDEST PUSH1 0x40 MLOAD DUP1 SWAP2 SUB SWAP1 RETURN JUMPDEST PUSH2 0xC9 PUSH2 0xC4 CALLDATASIZE PUSH1 0x4 PUSH2 0x50B JUMP JUMPDEST PUSH2 0x138 JUMP JUMPDEST PUSH1 0x40 MLOAD PUSH2 0xAD SWAP2 SWAP1 PUSH2 0x630 JUMP JUMPDEST PUSH2 0xDE PUSH2 0x158 JUMP JUMPDEST STOP JUMPDEST PUSH2 0xA0 PUSH2 0x208 JUMP JUMPDEST PUSH2 0xA0 PUSH2 0xF6 CALLDATASIZE PUSH1 0x4 PUSH2 0x5EB JUMP JUMPDEST PUSH2 0x20D JUMP JUMPDEST PUSH2 0x103 PUSH2 0x222 JUMP JUMPDEST PUSH1 0x40 MLOAD PUSH2 0xAD SWAP2 SWAP1 PUSH2 0x61C JUMP JUMPDEST PUSH2 0xA0 PUSH2 0x231 JUMP JUMPDEST PUSH2 0xC9 PUSH2 0x300 JUMP JUMPDEST PUSH2 0xDE PUSH2 0x12E CALLDATASIZE PUSH1 0x4 PUSH2 0x5AC JUMP JUMPDEST PUSH2 0x310 JUMP JUMPDEST PUSH1 0x2 DUP2 JUMP JUMPDEST DUP1 MLOAD PUSH1 0x20 DUP2 DUP4 ADD DUP2 ADD DUP1 MLOAD PUSH1 0x2 DUP3 MSTORE SWAP3 DUP3 ADD SWAP2 SWAP1 SWAP4 ADD KECCAK256 SWAP2 MSTORE SLOAD PUSH1 0xFF AND DUP2 JUMP JUMPDEST PUSH1 0x0 SLOAD PUSH1 0x1 PUSH1 0xA0 SHL SWAP1 DIV PUSH1 0xFF AND ISZERO PUSH2 0x18B JUMPI PUSH1 0x40 MLOAD PUSH3 0x461BCD PUSH1 0xE5 SHL DUP2 MSTORE PUSH1 0x4 ADD PUSH2 0x182 SWAP1 PUSH2 0x683 JUMP JUMPDEST PUSH1 0x40 MLOAD DUP1 SWAP2 SUB SWAP1 REVERT JUMPDEST PUSH1 0x0 SLOAD PUSH1 0x1 PUSH1 0x1 PUSH1 0xA0 SHL SUB AND CALLER EQ PUSH2 0x1B5 JUMPI PUSH1 0x40 MLOAD PUSH3 0x461BCD PUSH1 0xE5 SHL DUP2 MSTORE PUSH1 0x4 ADD PUSH2 0x182 SWAP1 PUSH2 0x71E JUMP JUMPDEST PUSH1 0x0 DUP1 SLOAD PUSH1 0xFF PUSH1 0xA0 SHL NOT AND PUSH1 0x1 PUSH1 0xA0 SHL OR SWAP1 SSTORE PUSH32 0xAACB23683EC1A0E9B52F9A6264EDF58AD322AC62079D65EA7363A2D400F439F4 PUSH2 0x1F1 PUSH2 0x231 JUMP JUMPDEST PUSH1 0x40 MLOAD PUSH2 0x1FE SWAP2 SWAP1 PUSH2 0x755 JUMP JUMPDEST PUSH1 0x40 MLOAD DUP1 SWAP2 SUB SWAP1 LOG1 JUMP JUMPDEST PUSH1 0x1 DUP2 JUMP JUMPDEST PUSH1 0x1 PUSH1 0x20 MSTORE PUSH1 0x0 SWAP1 DUP2 MSTORE PUSH1 0x40 SWAP1 KECCAK256 SLOAD PUSH1 0xFF AND DUP2 JUMP JUMPDEST PUSH1 0x0 SLOAD PUSH1 0x1 PUSH1 0x1 PUSH1 0xA0 SHL SUB AND DUP2 JUMP JUMPDEST PUSH1 0x1 PUSH1 0x20 DUP2 SWAP1 MSTORE PUSH32 0xD9D16D34FFB15BA3A3D852F0D403E2CE1D691FB54DE27AC87CD2F993F3EC330F SLOAD PUSH1 0x0 SWAP2 DUP3 MSTORE PUSH32 0xCC69885FDA6BCC1A4ACE058B4A62BF5E179EA78FD58A1CCD71C22CC9B688792F SLOAD PUSH1 0xFF SWAP2 DUP3 AND SWAP2 AND GT ISZERO PUSH2 0x296 JUMPI POP PUSH1 0x1 PUSH2 0x2FD JUMP JUMPDEST PUSH1 0x1 PUSH1 0x20 MSTORE PUSH32 0xCC69885FDA6BCC1A4ACE058B4A62BF5E179EA78FD58A1CCD71C22CC9B688792F SLOAD PUSH1 0x2 PUSH1 0x0 MSTORE PUSH32 0xD9D16D34FFB15BA3A3D852F0D403E2CE1D691FB54DE27AC87CD2F993F3EC330F SLOAD PUSH1 0xFF SWAP2 DUP3 AND SWAP2 AND GT ISZERO PUSH2 0x2F9 JUMPI POP PUSH1 0x2 PUSH2 0x2FD JUMP JUMPDEST POP PUSH1 0x0 JUMPDEST SWAP1 JUMP JUMPDEST PUSH1 0x0 SLOAD PUSH1 0x1 PUSH1 0xA0 SHL SWAP1 DIV PUSH1 0xFF AND DUP2 JUMP JUMPDEST PUSH1 0x0 SLOAD PUSH1 0x1 PUSH1 0xA0 SHL SWAP1 DIV PUSH1 0xFF AND ISZERO PUSH2 0x33A JUMPI PUSH1 0x40 MLOAD PUSH3 0x461BCD PUSH1 0xE5 SHL DUP2 MSTORE PUSH1 0x4 ADD PUSH2 0x182 SWAP1 PUSH2 0x683 JUMP JUMPDEST PUSH1 0x0 SLOAD PUSH1 0x1 PUSH1 0x1 PUSH1 0xA0 SHL SUB AND CALLER EQ PUSH2 0x364 JUMPI PUSH1 0x40 MLOAD PUSH3 0x461BCD PUSH1 0xE5 SHL DUP2 MSTORE PUSH1 0x4 ADD PUSH2 0x182 SWAP1 PUSH2 0x71E JUMP JUMPDEST PUSH1 0x0 PUSH2 0x376 PUSH1 0x80 DUP4 ADD PUSH1 0x60 DUP5 ADD PUSH2 0x5EB JUMP JUMPDEST PUSH1 0xFF AND GT PUSH2 0x396 JUMPI PUSH1 0x40 MLOAD PUSH3 0x461BCD PUSH1 0xE5 SHL DUP2 MSTORE PUSH1 0x4 ADD PUSH2 0x182 SWAP1 PUSH2 0x6E9 JUMP JUMPDEST DUP1 PUSH1 0x40 ADD CALLDATALOAD DUP2 PUSH1 0x20 ADD CALLDATALOAD EQ ISZERO PUSH2 0x3BE JUMPI PUSH1 0x40 MLOAD PUSH3 0x461BCD PUSH1 0xE5 SHL DUP2 MSTORE PUSH1 0x4 ADD PUSH2 0x182 SWAP1 PUSH2 0x6BA JUMP JUMPDEST PUSH1 0x2 PUSH2 0x3CA DUP3 DUP1 PUSH2 0x7A6 JUMP JUMPDEST PUSH1 0x40 MLOAD PUSH2 0x3D8 SWAP3 SWAP2 SWAP1 PUSH2 0x60C JUMP JUMPDEST SWAP1 DUP2 MSTORE PUSH1 0x40 MLOAD SWAP1 DUP2 SWAP1 SUB PUSH1 0x20 ADD SWAP1 KECCAK256 SLOAD PUSH1 0xFF AND ISZERO PUSH2 0x408 JUMPI PUSH1 0x40 MLOAD PUSH3 0x461BCD PUSH1 0xE5 SHL DUP2 MSTORE PUSH1 0x4 ADD PUSH2 0x182 SWAP1 PUSH2 0x63B JUMP JUMPDEST PUSH1 0x0 DUP2 PUSH1 0x40 ADD CALLDATALOAD DUP3 PUSH1 0x20 ADD CALLDATALOAD GT ISZERO PUSH2 0x422 JUMPI POP PUSH1 0x1 PUSH2 0x426 JUMP JUMPDEST POP PUSH1 0x2 JUMPDEST PUSH2 0x436 PUSH1 0x80 DUP4 ADD PUSH1 0x60 DUP5 ADD PUSH2 0x5EB JUMP JUMPDEST PUSH1 0xFF DUP1 DUP4 AND PUSH1 0x0 SWAP1 DUP2 MSTORE PUSH1 0x1 PUSH1 0x20 MSTORE PUSH1 0x40 DUP2 KECCAK256 DUP1 SLOAD SWAP1 SWAP3 PUSH2 0x459 SWAP2 DUP6 SWAP2 AND PUSH2 0x7F2 JUMP JUMPDEST SWAP3 POP PUSH2 0x100 EXP DUP2 SLOAD DUP2 PUSH1 0xFF MUL NOT AND SWAP1 DUP4 PUSH1 0xFF AND MUL OR SWAP1 SSTORE POP PUSH1 0x1 PUSH1 0x2 DUP4 DUP1 PUSH1 0x0 ADD SWAP1 PUSH2 0x485 SWAP2 SWAP1 PUSH2 0x7A6 JUMP JUMPDEST PUSH1 0x40 MLOAD PUSH2 0x493 SWAP3 SWAP2 SWAP1 PUSH2 0x60C JUMP JUMPDEST SWAP1 DUP2 MSTORE PUSH1 0x40 MLOAD SWAP1 DUP2 SWAP1 SUB PUSH1 0x20 ADD SWAP1 KECCAK256 DUP1 SLOAD SWAP2 ISZERO ISZERO PUSH1 0xFF NOT SWAP1 SWAP3 AND SWAP2 SWAP1 SWAP2 OR SWAP1 SSTORE PUSH32 0xA2E71FE38F1AFA3762CF9D2EA7BB6A4D272A90FD6F9392F3ACEDD3B542046B46 DUP2 PUSH2 0x4E5 PUSH1 0x80 DUP6 ADD PUSH1 0x60 DUP7 ADD PUSH2 0x5EB JUMP JUMPDEST PUSH2 0x4EF DUP6 DUP1 PUSH2 0x7A6 JUMP JUMPDEST PUSH1 0x40 MLOAD PUSH2 0x4FF SWAP5 SWAP4 SWAP3 SWAP2 SWAP1 PUSH2 0x763 JUMP JUMPDEST PUSH1 0x40 MLOAD DUP1 SWAP2 SUB SWAP1 LOG1 POP POP JUMP JUMPDEST PUSH1 0x0 PUSH1 0x20 DUP1 DUP4 DUP6 SUB SLT ISZERO PUSH2 0x51D JUMPI DUP2 DUP3 REVERT JUMPDEST DUP3 CALLDATALOAD PUSH8 0xFFFFFFFFFFFFFFFF DUP1 DUP3 GT ISZERO PUSH2 0x534 JUMPI DUP4 DUP5 REVERT JUMPDEST DUP2 DUP6 ADD SWAP2 POP DUP6 PUSH1 0x1F DUP4 ADD SLT PUSH2 0x547 JUMPI DUP4 DUP5 REVERT JUMPDEST DUP2 CALLDATALOAD DUP2 DUP2 GT ISZERO PUSH2 0x559 JUMPI PUSH2 0x559 PUSH2 0x823 JUMP JUMPDEST PUSH1 0x40 MLOAD PUSH1 0x1F DUP3 ADD PUSH1 0x1F NOT AND DUP2 ADD DUP6 ADD DUP4 DUP2 GT DUP3 DUP3 LT OR ISZERO PUSH2 0x57C JUMPI PUSH2 0x57C PUSH2 0x823 JUMP JUMPDEST PUSH1 0x40 MSTORE DUP2 DUP2 MSTORE DUP4 DUP3 ADD DUP6 ADD DUP9 LT ISZERO PUSH2 0x592 JUMPI DUP6 DUP7 REVERT JUMPDEST DUP2 DUP6 DUP6 ADD DUP7 DUP4 ADD CALLDATACOPY SWAP1 DUP2 ADD SWAP1 SWAP4 ADD SWAP4 SWAP1 SWAP4 MSTORE POP SWAP4 SWAP3 POP POP POP JUMP JUMPDEST PUSH1 0x0 PUSH1 0x20 DUP3 DUP5 SUB SLT ISZERO PUSH2 0x5BD JUMPI DUP1 DUP2 REVERT JUMPDEST DUP2 CALLDATALOAD PUSH8 0xFFFFFFFFFFFFFFFF DUP2 GT ISZERO PUSH2 0x5D3 JUMPI DUP2 DUP3 REVERT JUMPDEST DUP3 ADD PUSH1 0x80 DUP2 DUP6 SUB SLT ISZERO PUSH2 0x5E4 JUMPI DUP2 DUP3 REVERT JUMPDEST SWAP4 SWAP3 POP POP POP JUMP JUMPDEST PUSH1 0x0 PUSH1 0x20 DUP3 DUP5 SUB SLT ISZERO PUSH2 0x5FC JUMPI DUP1 DUP2 REVERT JUMPDEST DUP2 CALLDATALOAD PUSH1 0xFF DUP2 AND DUP2 EQ PUSH2 0x5E4 JUMPI DUP2 DUP3 REVERT JUMPDEST PUSH1 0x0 DUP3 DUP5 DUP4 CALLDATACOPY SWAP2 ADD SWAP1 DUP2 MSTORE SWAP2 SWAP1 POP JUMP JUMPDEST PUSH1 0x1 PUSH1 0x1 PUSH1 0xA0 SHL SUB SWAP2 SWAP1 SWAP2 AND DUP2 MSTORE PUSH1 0x20 ADD SWAP1 JUMP JUMPDEST SWAP1 ISZERO ISZERO DUP2 MSTORE PUSH1 0x20 ADD SWAP1 JUMP JUMPDEST PUSH1 0x20 DUP1 DUP3 MSTORE PUSH1 0x28 SWAP1 DUP3 ADD MSTORE PUSH32 0x5468697320737461746520726573756C742077617320616C7265616479207375 PUSH1 0x40 DUP3 ADD MSTORE PUSH8 0x626D697474656421 PUSH1 0xC0 SHL PUSH1 0x60 DUP3 ADD MSTORE PUSH1 0x80 ADD SWAP1 JUMP JUMPDEST PUSH1 0x20 DUP1 DUP3 MSTORE PUSH1 0x1E SWAP1 DUP3 ADD MSTORE PUSH32 0x54686520656C656374696F6E2068617320656E64656420616C72656164790000 PUSH1 0x40 DUP3 ADD MSTORE PUSH1 0x60 ADD SWAP1 JUMP JUMPDEST PUSH1 0x20 DUP1 DUP3 MSTORE PUSH1 0x15 SWAP1 DUP3 ADD MSTORE PUSH21 0x54686572652063616E6E6F74206265206120746965 PUSH1 0x58 SHL PUSH1 0x40 DUP3 ADD MSTORE PUSH1 0x60 ADD SWAP1 JUMP JUMPDEST PUSH1 0x20 DUP1 DUP3 MSTORE DUP2 DUP2 ADD MSTORE PUSH32 0x537461746573206D7573742068617665206174206C6561737420312073656174 PUSH1 0x40 DUP3 ADD MSTORE PUSH1 0x60 ADD SWAP1 JUMP JUMPDEST PUSH1 0x20 DUP1 DUP3 MSTORE PUSH1 0x18 SWAP1 DUP3 ADD MSTORE PUSH32 0x4E6F7420696E766F6B656420627920746865206F776E65720000000000000000 PUSH1 0x40 DUP3 ADD MSTORE PUSH1 0x60 ADD SWAP1 JUMP JUMPDEST PUSH1 0xFF SWAP2 SWAP1 SWAP2 AND DUP2 MSTORE PUSH1 0x20 ADD SWAP1 JUMP JUMPDEST PUSH1 0x0 PUSH1 0xFF DUP7 AND DUP3 MSTORE PUSH1 0xFF DUP6 AND PUSH1 0x20 DUP4 ADD MSTORE PUSH1 0x60 PUSH1 0x40 DUP4 ADD MSTORE DUP3 PUSH1 0x60 DUP4 ADD MSTORE DUP3 DUP5 PUSH1 0x80 DUP5 ADD CALLDATACOPY DUP2 DUP4 ADD PUSH1 0x80 SWAP1 DUP2 ADD SWAP2 SWAP1 SWAP2 MSTORE PUSH1 0x1F SWAP1 SWAP3 ADD PUSH1 0x1F NOT AND ADD ADD SWAP4 SWAP3 POP POP POP JUMP JUMPDEST PUSH1 0x0 DUP1 DUP4 CALLDATALOAD PUSH1 0x1E NOT DUP5 CALLDATASIZE SUB ADD DUP2 SLT PUSH2 0x7BC JUMPI DUP3 DUP4 REVERT JUMPDEST DUP4 ADD DUP1 CALLDATALOAD SWAP2 POP PUSH8 0xFFFFFFFFFFFFFFFF DUP3 GT ISZERO PUSH2 0x7D6 JUMPI DUP3 DUP4 REVERT JUMPDEST PUSH1 0x20 ADD SWAP2 POP CALLDATASIZE DUP2 SWAP1 SUB DUP3 SGT ISZERO PUSH2 0x7EB JUMPI PUSH1 0x0 DUP1 REVERT JUMPDEST SWAP3 POP SWAP3 SWAP1 POP JUMP JUMPDEST PUSH1 0x0 PUSH1 0xFF DUP3 AND PUSH1 0xFF DUP5 AND DUP1 PUSH1 0xFF SUB DUP3 GT ISZERO PUSH2 0x81B JUMPI PUSH4 0x4E487B71 PUSH1 0xE0 SHL DUP4 MSTORE PUSH1 0x11 PUSH1 0x4 MSTORE PUSH1 0x24 DUP4 REVERT JUMPDEST ADD SWAP4 SWAP3 POP POP POP JUMP JUMPDEST PUSH4 0x4E487B71 PUSH1 0xE0 SHL PUSH1 0x0 MSTORE PUSH1 0x41 PUSH1 0x4 MSTORE PUSH1 0x24 PUSH1 0x0 REVERT INVALID LOG2 PUSH5 0x6970667358 0x22 SLT KECCAK256 CREATE 0xDB 0xAD MULMOD DUP1 DUP13 0xAB 0xCC 0xC8 0xB4 EXTCODEHASH 0xB5 0xAD JUMPI DUP4 DUP2 0x24 SWAP14 OR LOG0 0x1F XOR SELFBALANCE 0xE8 0xEB JUMPI JUMPI 0x2D SWAP8 PUSH14 0xBCF564736F6C6343000800003300 "},"methodIdentifiers":{"BIDEN()":"69b36bd4","TRUMP()":"2d78d8e5","currentLeader()":"ac4bd53a","electionEnded()":"c94ca9e3","endElection()":"59f78468","owner()":"8da5cb5b","resultsSubmitted(string)":"37ad98ec","seats(uint8)":"713d87c5","submitStateResult((string,uint256,uint256,uint8))":"e494a883"}}}}}