{
  "_format": "hh-sol-artifact-1",
  "contractName": "USElection",
  "sourceName": "contracts/USElection.sol",
  "abi": [
    {
      "anonymous": false,
      "inputs": [
        {
          "indexed": false,
          "internalType": "uint256",
          "name": "winner",
          "type": "uint256"
        }
      ],
      "name": "LogElectionEnded",
      "type": "event"
    },
    {
      "anonymous": false,
      "inputs": [
        {
          "indexed": false,
          "internalType": "uint8",
          "name": "winner",
          "type": "uint8"
        },
        {
          "indexed": false,
          "internalType": "uint8",
          "name": "stateSeats",
          "type": "uint8"
        },
        {
          "indexed": false,
          "internalType": "string",
          "name": "state",
          "type": "string"
        }
      ],
      "name": "LogStateResult",
      "type": "event"
    },
    {
      "inputs": [],
      "name": "BIDEN",
      "outputs": [
        {
          "internalType": "uint8",
          "name": "",
          "type": "uint8"
        }
      ],
      "stateMutability": "view",
      "type": "function"
    },
    {
      "inputs": [],
      "name": "TRUMP",
      "outputs": [
        {
          "internalType": "uint8",
          "name": "",
          "type": "uint8"
        }
      ],
      "stateMutability": "view",
      "type": "function"
    },
    {
      "inputs": [],
      "name": "currentLeader",
      "outputs": [
        {
          "internalType": "uint8",
          "name": "",
          "type": "uint8"
        }
      ],
      "stateMutability": "view",
      "type": "function"
    },
    {
      "inputs": [],
      "name": "electionEnded",
      "outputs": [
        {
          "internalType": "bool",
          "name": "",
          "type": "bool"
        }
      ],
      "stateMutability": "view",
      "type": "function"
    },
    {
      "inputs": [],
      "name": "endElection",
      "outputs": [],
      "stateMutability": "nonpayable",
      "type": "function"
    },
    {
      "inputs": [],
      "name": "owner",
      "outputs": [
        {
          "internalType": "address",
          "name": "",
          "type": "address"
        }
      ],
      "stateMutability": "view",
      "type": "function"
    },
    {
      "inputs": [
        {
          "internalType": "string",
          "name": "",
          "type": "string"
        }
      ],
      "name": "resultsSubmitted",
      "outputs": [
        {
          "internalType": "bool",
          "name": "",
          "type": "bool"
        }
      ],
      "stateMutability": "view",
      "type": "function"
    },
    {
      "inputs": [
        {
          "internalType": "uint8",
          "name": "",
          "type": "uint8"
        }
      ],
      "name": "seats",
      "outputs": [
        {
          "internalType": "uint8",
          "name": "",
          "type": "uint8"
        }
      ],
      "stateMutability": "view",
      "type": "function"
    },
    {
      "inputs": [
        {
          "components": [
            {
              "internalType": "string",
              "name": "name",
              "type": "string"
            },
            {
              "internalType": "uint256",
              "name": "votesBiden",
              "type": "uint256"
            },
            {
              "internalType": "uint256",
              "name": "votesTrump",
              "type": "uint256"
            },
            {
              "internalType": "uint8",
              "name": "stateSeats",
              "type": "uint8"
            }
          ],
          "internalType": "struct USElection.StateResult",
          "name": "result",
          "type": "tuple"
        }
      ],
      "name": "submitStateResult",
      "outputs": [],
      "stateMutability": "nonpayable",
      "type": "function"
    }
  ],
  "bytecode": "0x608060405234801561001057600080fd5b50600080546001600160a01b0319163317905561086f806100326000396000f3fe608060405234801561001057600080fd5b50600436106100935760003560e01c8063713d87c511610066578063713d87c5146100e85780638da5cb5b146100fb578063ac4bd53a14610110578063c94ca9e314610118578063e494a8831461012057610093565b80632d78d8e51461009857806337ad98ec146100b657806359f78468146100d657806369b36bd4146100e0575b600080fd5b6100a0610133565b6040516100ad9190610755565b60405180910390f35b6100c96100c436600461050b565b610138565b6040516100ad9190610630565b6100de610158565b005b6100a0610208565b6100a06100f63660046105eb565b61020d565b610103610222565b6040516100ad919061061c565b6100a0610231565b6100c9610300565b6100de61012e3660046105ac565b610310565b600281565b805160208183018101805160028252928201919093012091525460ff1681565b600054600160a01b900460ff161561018b5760405162461bcd60e51b815260040161018290610683565b60405180910390fd5b6000546001600160a01b031633146101b55760405162461bcd60e51b81526004016101829061071e565b6000805460ff60a01b1916600160a01b1790557faacb23683ec1a0e9b52f9a6264edf58ad322ac62079d65ea7363a2d400f439f46101f1610231565b6040516101fe9190610755565b60405180910390a1565b600181565b60016020526000908152604090205460ff1681565b6000546001600160a01b031681565b600160208190527fd9d16d34ffb15ba3a3d852f0d403e2ce1d691fb54de27ac87cd2f993f3ec330f5460009182527fcc69885fda6bcc1a4ace058b4a62bf5e179ea78fd58a1ccd71c22cc9b688792f5460ff91821691161115610296575060016102fd565b60016020527fcc69885fda6bcc1a4ace058b4a62bf5e179ea78fd58a1ccd71c22cc9b688792f5460026000527fd9d16d34ffb15ba3a3d852f0d403e2ce1d691fb54de27ac87cd2f993f3ec330f5460ff918216911611156102f9575060026102fd565b5060005b90565b600054600160a01b900460ff1681565b600054600160a01b900460ff161561033a5760405162461bcd60e51b815260040161018290610683565b6000546001600160a01b031633146103645760405162461bcd60e51b81526004016101829061071e565b600061037660808301606084016105eb565b60ff16116103965760405162461bcd60e51b8152600401610182906106e9565b8060400135816020013514156103be5760405162461bcd60e51b8152600401610182906106ba565b60026103ca82806107a6565b6040516103d892919061060c565b9081526040519081900360200190205460ff16156104085760405162461bcd60e51b81526004016101829061063b565b600081604001358260200135111561042257506001610426565b5060025b61043660808301606084016105eb565b60ff808316600090815260016020526040812080549092610459918591166107f2565b92506101000a81548160ff021916908360ff1602179055506001600283806000019061048591906107a6565b60405161049392919061060c565b908152604051908190036020019020805491151560ff199092169190911790557fa2e71fe38f1afa3762cf9d2ea7bb6a4d272a90fd6f9392f3acedd3b542046b46816104e560808501606086016105eb565b6104ef85806107a6565b6040516104ff9493929190610763565b60405180910390a15050565b6000602080838503121561051d578182fd5b823567ffffffffffffffff80821115610534578384fd5b818501915085601f830112610547578384fd5b81358181111561055957610559610823565b604051601f8201601f191681018501838111828210171561057c5761057c610823565b6040528181528382018501881015610592578586fd5b818585018683013790810190930193909352509392505050565b6000602082840312156105bd578081fd5b813567ffffffffffffffff8111156105d3578182fd5b8201608081850312156105e4578182fd5b9392505050565b6000602082840312156105fc578081fd5b813560ff811681146105e4578182fd5b6000828483379101908152919050565b6001600160a01b0391909116815260200190565b901515815260200190565b60208082526028908201527f5468697320737461746520726573756c742077617320616c7265616479207375604082015267626d69747465642160c01b606082015260800190565b6020808252601e908201527f54686520656c656374696f6e2068617320656e64656420616c72656164790000604082015260600190565b60208082526015908201527454686572652063616e6e6f7420626520612074696560581b604082015260600190565b6020808252818101527f537461746573206d7573742068617665206174206c6561737420312073656174604082015260600190565b60208082526018908201527f4e6f7420696e766f6b656420627920746865206f776e65720000000000000000604082015260600190565b60ff91909116815260200190565b600060ff8616825260ff851660208301526060604083015282606083015282846080840137818301608090810191909152601f909201601f191601019392505050565b6000808335601e198436030181126107bc578283fd5b83018035915067ffffffffffffffff8211156107d6578283fd5b6020019150368190038213156107eb57600080fd5b9250929050565b600060ff821660ff84168060ff0382111561081b57634e487b7160e01b83526011600452602483fd5b019392505050565b634e487b7160e01b600052604160045260246000fdfea2646970667358221220f0dbad09808cabccc8b43fb5ad578381249d17a01f1847e8eb57572d976dbcf564736f6c63430008000033",
  "linkReferences": {},
  "deployedLinkReferences": {}
}